{"abi":[{"type":"constructor","inputs":[],"stateMutability":"nonpayable"},{"type":"function","name":"admin","inputs":[],"outputs":[{"name":"","type":"address","internalType":"address"}],"stateMutability":"view"},{"type":"function","name":"candidateList","inputs":[{"name":"","type":"uint256","internalType":"uint256"}],"outputs":[{"name":"","type":"address","internalType":"address"}],"stateMutability":"view"},{"type":"function","name":"candidateMapping","inputs":[{"name":"","type":"address","internalType":"address"}],"outputs":[{"name":"isRegistered","type":"bool","internalType":"bool"},{"name":"status","type":"uint8","internalType":"enum Voting.PossibleStatus"},{"name":"name","type":"string","internalType":"string"},{"name":"description","type":"string","internalType":"string"},{"name":"manifesto","type":"string","internalType":"string"},{"name":"partyName","type":"string","internalType":"string"},{"name":"aadharPhotoHash","type":"string","internalType":"string"},{"name":"votes","type":"uint256","internalType":"uint256"}],"stateMutability":"view"},{"type":"function","name":"changeStatus","inputs":[{"name":"_user","type":"address","internalType":"address"},{"name":"_isCandidate","type":"bool","internalType":"bool"},{"name":"_status","type":"uint8","internalType":"enum Voting.PossibleStatus"}],"outputs":[],"stateMutability":"nonpayable"},{"type":"function","name":"electionEnd","inputs":[],"outputs":[{"name":"","type":"uint256","internalType":"uint256"}],"stateMutability":"view"},{"type":"function","name":"electionStart","inputs":[],"outputs":[{"name":"","type":"uint256","internalType":"uint256"}],"stateMutability":"view"},{"type":"function","name":"getCandidates","inputs":[],"outputs":[{"name":"","type":"address[]","internalType":"address[]"}],"stateMutability":"view"},{"type":"function","name":"isElectionActive","inputs":[],"outputs":[{"name":"","type":"bool","internalType":"bool"}],"stateMutability":"view"},{"type":"function","name":"registerCandidate","inputs":[{"name":"_name","type":"string","internalType":"string"},{"name":"_description","type":"string","internalType":"string"},{"name":"_aadharHash","type":"string","internalType":"string"},{"name":"_partyName","type":"string","internalType":"string"},{"name":"_manifesto","type":"string","internalType":"string"}],"outputs":[],"stateMutability":"nonpayable"},{"type":"function","name":"registerVoter","inputs":[{"name":"_name","type":"string","internalType":"string"},{"name":"_description","type":"string","internalType":"string"},{"name":"_aadharHash","type":"string","internalType":"string"}],"outputs":[],"stateMutability":"nonpayable"},{"type":"function","name":"setElectionStatus","inputs":[{"name":"_status","type":"bool","internalType":"bool"}],"outputs":[],"stateMutability":"nonpayable"},{"type":"function","name":"setElectionTime","inputs":[{"name":"_start","type":"uint256","internalType":"uint256"},{"name":"_end","type":"uint256","internalType":"uint256"}],"outputs":[],"stateMutability":"nonpayable"},{"type":"function","name":"totalRegisteredCandidates","inputs":[],"outputs":[{"name":"","type":"uint256","internalType":"uint256"}],"stateMutability":"view"},{"type":"function","name":"totalRegisteredVoters","inputs":[],"outputs":[{"name":"","type":"uint256","internalType":"uint256"}],"stateMutability":"view"},{"type":"function","name":"totalVotersWhoVoted","inputs":[],"outputs":[{"name":"","type":"uint256","internalType":"uint256"}],"stateMutability":"view"},{"type":"function","name":"voteForCandidate","inputs":[{"name":"_candidate","type":"address","internalType":"address"}],"outputs":[],"stateMutability":"nonpayable"},{"type":"function","name":"voterMapping","inputs":[{"name":"","type":"address","internalType":"address"}],"outputs":[{"name":"hasVoted","type":"bool","internalType":"bool"},{"name":"isRegistered","type":"bool","internalType":"bool"},{"name":"registeredAt","type":"uint256","internalType":"uint256"},{"name":"votedForCandidate","type":"address","internalType":"address"},{"name":"status","type":"uint8","internalType":"enum Voting.PossibleStatus"},{"name":"name","type":"string","internalType":"string"},{"name":"description","type":"string","internalType":"string"},{"name":"aadharPhotoHash","type":"string","internalType":"string"}],"stateMutability":"view"}],"bytecode":{"object":"0x6080604052348015600e575f5ffd5b503360095f6101000a81548173ffffffffffffffffffffffffffffffffffffffff021916908373ffffffffffffffffffffffffffffffffffffffff1602179055506125728061005c5f395ff3fe608060405234801561000f575f5ffd5b5060043610610108575f3560e01c80636ac658dd116100a0578063c84422391161006f578063c8442239146102b0578063cae2a4a9146102ce578063ce7ea161146102ea578063f1335a8f14610308578063f851a4401461032457610108565b80636ac658dd14610228578063844d7cf814610244578063b13c744b14610262578063c1211c861461029257610108565b8063163046eb116100dc578063163046eb1461019b57806318aead02146101b75780632b19f923146101ee5780634bf80a271461020c57610108565b8062aa74641461010c57806306a49fce1461012a57806307439509146101485780630dc968b814610164575b5f5ffd5b610114610342565b604051610121919061164e565b60405180910390f35b610132610348565b60405161013f919061174e565b60405180910390f35b610162600480360381019061015d91906118bb565b6103d3565b005b61017e60048036038101906101799190611989565b6106b0565b604051610192989796959493929190611ab0565b60405180910390f35b6101b560048036038101906101b09190611989565b6108ca565b005b6101d160048036038101906101cc9190611989565b610bb4565b6040516101e5989796959493929190611b41565b60405180910390f35b6101f6610eae565b604051610203919061164e565b60405180910390f35b61022660048036038101906102219190611be0565b610eb4565b005b610242600480360381019061023d9190611d30565b6111a0565b005b61024c611426565b604051610259919061164e565b60405180910390f35b61027c60048036038101906102779190611daa565b61142c565b6040516102899190611dd5565b60405180910390f35b61029a611467565b6040516102a7919061164e565b60405180910390f35b6102b861146c565b6040516102c59190611dee565b60405180910390f35b6102e860048036038101906102e39190611e07565b61147e565b005b6102f2611529565b6040516102ff919061164e565b60405180910390f35b610322600480360381019061031d9190611e32565b61152f565b005b61032c611611565b6040516103399190611dd5565b60405180910390f35b60045481565b606060088054806020026020016040519081016040528092919081815260200182805480156103c957602002820191905f5260205f20905b815f9054906101000a900473ffffffffffffffffffffffffffffffffffffffff1673ffffffffffffffffffffffffffffffffffffffff1681526020019060010190808311610380575b5050505050905090565b60095f9054906101000a900473ffffffffffffffffffffffffffffffffffffffff1673ffffffffffffffffffffffffffffffffffffffff163373ffffffffffffffffffffffffffffffffffffffff1603610462576040517f08c379a000000000000000000000000000000000000000000000000000000000815260040161045990611eba565b60405180910390fd5b60065f3373ffffffffffffffffffffffffffffffffffffffff1673ffffffffffffffffffffffffffffffffffffffff1681526020019081526020015f205f0160019054906101000a900460ff16156104ef576040517f08c379a00000000000000000000000000000000000000000000000000000000081526004016104e690611f22565b60405180910390fd5b60045f81548092919061050190611f6d565b91905055506040518061010001604052805f151581526020016001151581526020014281526020015f73ffffffffffffffffffffffffffffffffffffffff1681526020015f6002811115610558576105576119dd565b5b81526020018481526020018381526020018281525060065f3373ffffffffffffffffffffffffffffffffffffffff1673ffffffffffffffffffffffffffffffffffffffff1681526020019081526020015f205f820151815f015f6101000a81548160ff0219169083151502179055506020820151815f0160016101000a81548160ff021916908315150217905550604082015181600101556060820151816002015f6101000a81548173ffffffffffffffffffffffffffffffffffffffff021916908373ffffffffffffffffffffffffffffffffffffffff16021790555060808201518160020160146101000a81548160ff02191690836002811115610661576106606119dd565b5b021790555060a082015181600301908161067b91906121b1565b5060c082015181600401908161069191906121b1565b5060e08201518160050190816106a791906121b1565b50905050505050565b6006602052805f5260405f205f91509050805f015f9054906101000a900460ff1690805f0160019054906101000a900460ff1690806001015490806002015f9054906101000a900473ffffffffffffffffffffffffffffffffffffffff16908060020160149054906101000a900460ff169080600301805461073190611fe1565b80601f016020809104026020016040519081016040528092919081815260200182805461075d90611fe1565b80156107a85780601f1061077f576101008083540402835291602001916107a8565b820191905f5260205f20905b81548152906001019060200180831161078b57829003601f168201915b5050505050908060040180546107bd90611fe1565b80601f01602080910402602001604051908101604052809291908181526020018280546107e990611fe1565b80156108345780601f1061080b57610100808354040283529160200191610834565b820191905f5260205f20905b81548152906001019060200180831161081757829003601f168201915b50505050509080600501805461084990611fe1565b80601f016020809104026020016040519081016040528092919081815260200182805461087590611fe1565b80156108c05780601f10610897576101008083540402835291602001916108c0565b820191905f5260205f20905b8154815290600101906020018083116108a357829003601f168201915b5050505050905088565b60095f9054906101000a900473ffffffffffffffffffffffffffffffffffffffff1673ffffffffffffffffffffffffffffffffffffffff163373ffffffffffffffffffffffffffffffffffffffff1603610959576040517f08c379a000000000000000000000000000000000000000000000000000000000815260040161095090611eba565b60405180910390fd5b60065f3373ffffffffffffffffffffffffffffffffffffffff1673ffffffffffffffffffffffffffffffffffffffff1681526020019081526020015f205f015f9054906101000a900460ff16156109e5576040517f08c379a00000000000000000000000000000000000000000000000000000000081526004016109dc906122ca565b60405180910390fd5b60075f8273ffffffffffffffffffffffffffffffffffffffff1673ffffffffffffffffffffffffffffffffffffffff1681526020019081526020015f205f015f9054906101000a900460ff16610a70576040517f08c379a0000000000000000000000000000000000000000000000000000000008152600401610a6790612332565b60405180910390fd5b600160065f3373ffffffffffffffffffffffffffffffffffffffff1673ffffffffffffffffffffffffffffffffffffffff1681526020019081526020015f205f015f6101000a81548160ff0219169083151502179055508060065f3373ffffffffffffffffffffffffffffffffffffffff1673ffffffffffffffffffffffffffffffffffffffff1681526020019081526020015f206002015f6101000a81548173ffffffffffffffffffffffffffffffffffffffff021916908373ffffffffffffffffffffffffffffffffffffffff16021790555060075f8273ffffffffffffffffffffffffffffffffffffffff1673ffffffffffffffffffffffffffffffffffffffff1681526020019081526020015f206006015f815480929190610b9590611f6d565b919050555060055f815480929190610bac90611f6d565b919050555050565b6007602052805f5260405f205f91509050805f015f9054906101000a900460ff1690805f0160019054906101000a900460ff1690806001018054610bf790611fe1565b80601f0160208091040260200160405190810160405280929190818152602001828054610c2390611fe1565b8015610c6e5780601f10610c4557610100808354040283529160200191610c6e565b820191905f5260205f20905b815481529060010190602001808311610c5157829003601f168201915b505050505090806002018054610c8390611fe1565b80601f0160208091040260200160405190810160405280929190818152602001828054610caf90611fe1565b8015610cfa5780601f10610cd157610100808354040283529160200191610cfa565b820191905f5260205f20905b815481529060010190602001808311610cdd57829003601f168201915b505050505090806003018054610d0f90611fe1565b80601f0160208091040260200160405190810160405280929190818152602001828054610d3b90611fe1565b8015610d865780601f10610d5d57610100808354040283529160200191610d86565b820191905f5260205f20905b815481529060010190602001808311610d6957829003601f168201915b505050505090806004018054610d9b90611fe1565b80601f0160208091040260200160405190810160405280929190818152602001828054610dc790611fe1565b8015610e125780601f10610de957610100808354040283529160200191610e12565b820191905f5260205f20905b815481529060010190602001808311610df557829003601f168201915b505050505090806005018054610e2790611fe1565b80601f0160208091040260200160405190810160405280929190818152602001828054610e5390611fe1565b8015610e9e5780601f10610e7557610100808354040283529160200191610e9e565b820191905f5260205f20905b815481529060010190602001808311610e8157829003601f168201915b5050505050908060060154905088565b60055481565b60095f9054906101000a900473ffffffffffffffffffffffffffffffffffffffff1673ffffffffffffffffffffffffffffffffffffffff163373ffffffffffffffffffffffffffffffffffffffff1603610f43576040517f08c379a0000000000000000000000000000000000000000000000000000000008152600401610f3a90611eba565b60405180910390fd5b60075f3373ffffffffffffffffffffffffffffffffffffffff1673ffffffffffffffffffffffffffffffffffffffff1681526020019081526020015f205f015f9054906101000a900460ff1615610fcf576040517f08c379a0000000000000000000000000000000000000000000000000000000008152600401610fc690611f22565b60405180910390fd5b6040518061010001604052806001151581526020015f6002811115610ff757610ff66119dd565b5b81526020018681526020018581526020018281526020018381526020018481526020015f81525060075f3373ffffffffffffffffffffffffffffffffffffffff1673ffffffffffffffffffffffffffffffffffffffff1681526020019081526020015f205f820151815f015f6101000a81548160ff0219169083151502179055506020820151815f0160016101000a81548160ff021916908360028111156110a2576110a16119dd565b5b021790555060408201518160010190816110bc91906121b1565b5060608201518160020190816110d291906121b1565b5060808201518160030190816110e891906121b1565b5060a08201518160040190816110fe91906121b1565b5060c082015181600501908161111491906121b1565b5060e08201518160060155905050600833908060018154018082558091505060019003905f5260205f20015f9091909190916101000a81548173ffffffffffffffffffffffffffffffffffffffff021916908373ffffffffffffffffffffffffffffffffffffffff16021790555060035f81548092919061119490611f6d565b91905055505050505050565b60095f9054906101000a900473ffffffffffffffffffffffffffffffffffffffff1673ffffffffffffffffffffffffffffffffffffffff163373ffffffffffffffffffffffffffffffffffffffff161461122f576040517f08c379a0000000000000000000000000000000000000000000000000000000008152600401611226906123c0565b60405180910390fd5b811561132c5760075f8473ffffffffffffffffffffffffffffffffffffffff1673ffffffffffffffffffffffffffffffffffffffff1681526020019081526020015f205f015f9054906101000a900460ff166112c0576040517f08c379a00000000000000000000000000000000000000000000000000000000081526004016112b790612428565b60405180910390fd5b8060075f8573ffffffffffffffffffffffffffffffffffffffff1673ffffffffffffffffffffffffffffffffffffffff1681526020019081526020015f205f0160016101000a81548160ff02191690836002811115611322576113216119dd565b5b0217905550611421565b60065f8473ffffffffffffffffffffffffffffffffffffffff1673ffffffffffffffffffffffffffffffffffffffff1681526020019081526020015f205f0160019054906101000a900460ff166113b8576040517f08c379a00000000000000000000000000000000000000000000000000000000081526004016113af90612490565b60405180910390fd5b8060065f8573ffffffffffffffffffffffffffffffffffffffff1673ffffffffffffffffffffffffffffffffffffffff1681526020019081526020015f2060020160146101000a81548160ff0219169083600281111561141b5761141a6119dd565b5b02179055505b505050565b60035481565b6008818154811061143b575f80fd5b905f5260205f20015f915054906101000a900473ffffffffffffffffffffffffffffffffffffffff1681565b5f5481565b60025f9054906101000a900460ff1681565b60095f9054906101000a900473ffffffffffffffffffffffffffffffffffffffff1673ffffffffffffffffffffffffffffffffffffffff163373ffffffffffffffffffffffffffffffffffffffff161461150d576040517f08c379a0000000000000000000000000000000000000000000000000000000008152600401611504906123c0565b60405180910390fd5b8060025f6101000a81548160ff02191690831515021790555050565b60015481565b60095f9054906101000a900473ffffffffffffffffffffffffffffffffffffffff1673ffffffffffffffffffffffffffffffffffffffff163373ffffffffffffffffffffffffffffffffffffffff16146115be576040517f08c379a00000000000000000000000000000000000000000000000000000000081526004016115b5906123c0565b60405180910390fd5b808210611600576040517f08c379a00000000000000000000000000000000000000000000000000000000081526004016115f79061251e565b60405180910390fd5b815f81905550806001819055505050565b60095f9054906101000a900473ffffffffffffffffffffffffffffffffffffffff1681565b5f819050919050565b61164881611636565b82525050565b5f6020820190506116615f83018461163f565b92915050565b5f81519050919050565b5f82825260208201905092915050565b5f819050602082019050919050565b5f73ffffffffffffffffffffffffffffffffffffffff82169050919050565b5f6116b982611690565b9050919050565b6116c9816116af565b82525050565b5f6116da83836116c0565b60208301905092915050565b5f602082019050919050565b5f6116fc82611667565b6117068185611671565b935061171183611681565b805f5b8381101561174157815161172888826116cf565b9750611733836116e6565b925050600181019050611714565b5085935050505092915050565b5f6020820190508181035f83015261176681846116f2565b905092915050565b5f604051905090565b5f5ffd5b5f5ffd5b5f5ffd5b5f5ffd5b5f601f19601f8301169050919050565b7f4e487b71000000000000000000000000000000000000000000000000000000005f52604160045260245ffd5b6117cd82611787565b810181811067ffffffffffffffff821117156117ec576117eb611797565b5b80604052505050565b5f6117fe61176e565b905061180a82826117c4565b919050565b5f67ffffffffffffffff82111561182957611828611797565b5b61183282611787565b9050602081019050919050565b828183375f83830152505050565b5f61185f61185a8461180f565b6117f5565b90508281526020810184848401111561187b5761187a611783565b5b61188684828561183f565b509392505050565b5f82601f8301126118a2576118a161177f565b5b81356118b284826020860161184d565b91505092915050565b5f5f5f606084860312156118d2576118d1611777565b5b5f84013567ffffffffffffffff8111156118ef576118ee61177b565b5b6118fb8682870161188e565b935050602084013567ffffffffffffffff81111561191c5761191b61177b565b5b6119288682870161188e565b925050604084013567ffffffffffffffff8111156119495761194861177b565b5b6119558682870161188e565b9150509250925092565b611968816116af565b8114611972575f5ffd5b50565b5f813590506119838161195f565b92915050565b5f6020828403121561199e5761199d611777565b5b5f6119ab84828501611975565b91505092915050565b5f8115159050919050565b6119c8816119b4565b82525050565b6119d7816116af565b82525050565b7f4e487b71000000000000000000000000000000000000000000000000000000005f52602160045260245ffd5b60038110611a1b57611a1a6119dd565b5b50565b5f819050611a2b82611a0a565b919050565b5f611a3a82611a1e565b9050919050565b611a4a81611a30565b82525050565b5f81519050919050565b5f82825260208201905092915050565b8281835e5f83830152505050565b5f611a8282611a50565b611a8c8185611a5a565b9350611a9c818560208601611a6a565b611aa581611787565b840191505092915050565b5f61010082019050611ac45f83018b6119bf565b611ad1602083018a6119bf565b611ade604083018961163f565b611aeb60608301886119ce565b611af86080830187611a41565b81810360a0830152611b0a8186611a78565b905081810360c0830152611b1e8185611a78565b905081810360e0830152611b328184611a78565b90509998505050505050505050565b5f61010082019050611b555f83018b6119bf565b611b62602083018a611a41565b8181036040830152611b748189611a78565b90508181036060830152611b888188611a78565b90508181036080830152611b9c8187611a78565b905081810360a0830152611bb08186611a78565b905081810360c0830152611bc48185611a78565b9050611bd360e083018461163f565b9998505050505050505050565b5f5f5f5f5f60a08688031215611bf957611bf8611777565b5b5f86013567ffffffffffffffff811115611c1657611c1561177b565b5b611c228882890161188e565b955050602086013567ffffffffffffffff811115611c4357611c4261177b565b5b611c4f8882890161188e565b945050604086013567ffffffffffffffff811115611c7057611c6f61177b565b5b611c7c8882890161188e565b935050606086013567ffffffffffffffff811115611c9d57611c9c61177b565b5b611ca98882890161188e565b925050608086013567ffffffffffffffff811115611cca57611cc961177b565b5b611cd68882890161188e565b9150509295509295909350565b611cec816119b4565b8114611cf6575f5ffd5b50565b5f81359050611d0781611ce3565b92915050565b60038110611d19575f5ffd5b50565b5f81359050611d2a81611d0d565b92915050565b5f5f5f60608486031215611d4757611d46611777565b5b5f611d5486828701611975565b9350506020611d6586828701611cf9565b9250506040611d7686828701611d1c565b9150509250925092565b611d8981611636565b8114611d93575f5ffd5b50565b5f81359050611da481611d80565b92915050565b5f60208284031215611dbf57611dbe611777565b5b5f611dcc84828501611d96565b91505092915050565b5f602082019050611de85f8301846119ce565b92915050565b5f602082019050611e015f8301846119bf565b92915050565b5f60208284031215611e1c57611e1b611777565b5b5f611e2984828501611cf9565b91505092915050565b5f5f60408385031215611e4857611e47611777565b5b5f611e5585828601611d96565b9250506020611e6685828601611d96565b9150509250929050565b7f41646d696e2063616e6e6f742063616c6c20746869732066756e6374696f6e005f82015250565b5f611ea4601f83611a5a565b9150611eaf82611e70565b602082019050919050565b5f6020820190508181035f830152611ed181611e98565b9050919050565b7f416c7265616479207265676973746572656400000000000000000000000000005f82015250565b5f611f0c601283611a5a565b9150611f1782611ed8565b602082019050919050565b5f6020820190508181035f830152611f3981611f00565b9050919050565b7f4e487b71000000000000000000000000000000000000000000000000000000005f52601160045260245ffd5b5f611f7782611636565b91507fffffffffffffffffffffffffffffffffffffffffffffffffffffffffffffffff8203611fa957611fa8611f40565b5b600182019050919050565b7f4e487b71000000000000000000000000000000000000000000000000000000005f52602260045260245ffd5b5f6002820490506001821680611ff857607f821691505b60208210810361200b5761200a611fb4565b5b50919050565b5f819050815f5260205f209050919050565b5f6020601f8301049050919050565b5f82821b905092915050565b5f6008830261206d7fffffffffffffffffffffffffffffffffffffffffffffffffffffffffffffffff82612032565b6120778683612032565b95508019841693508086168417925050509392505050565b5f819050919050565b5f6120b26120ad6120a884611636565b61208f565b611636565b9050919050565b5f819050919050565b6120cb83612098565b6120df6120d7826120b9565b84845461203e565b825550505050565b5f5f905090565b6120f66120e7565b6121018184846120c2565b505050565b5b81811015612124576121195f826120ee565b600181019050612107565b5050565b601f8211156121695761213a81612011565b61214384612023565b81016020851015612152578190505b61216661215e85612023565b830182612106565b50505b505050565b5f82821c905092915050565b5f6121895f198460080261216e565b1980831691505092915050565b5f6121a1838361217a565b9150826002028217905092915050565b6121ba82611a50565b67ffffffffffffffff8111156121d3576121d2611797565b5b6121dd8254611fe1565b6121e8828285612128565b5f60209050601f831160018114612219575f8415612207578287015190505b6122118582612196565b865550612278565b601f19841661222786612011565b5f5b8281101561224e57848901518255600182019150602085019450602081019050612229565b8683101561226b5784890151612267601f89168261217a565b8355505b6001600288020188555050505b505050505050565b7f566f74657220616c726561647920766f746564000000000000000000000000005f82015250565b5f6122b4601383611a5a565b91506122bf82612280565b602082019050919050565b5f6020820190508181035f8301526122e1816122a8565b9050919050565b7f496e76616c69642063616e6469646174650000000000000000000000000000005f82015250565b5f61231c601183611a5a565b9150612327826122e8565b602082019050919050565b5f6020820190508181035f83015261234981612310565b9050919050565b7f4f6e6c792041646d696e2063616e2063616c6c20746869732066756e6374696f5f8201527f6e00000000000000000000000000000000000000000000000000000000000000602082015250565b5f6123aa602183611a5a565b91506123b582612350565b604082019050919050565b5f6020820190508181035f8301526123d78161239e565b9050919050565b7f43616e646964617465206e6f74207265676973746572656400000000000000005f82015250565b5f612412601883611a5a565b915061241d826123de565b602082019050919050565b5f6020820190508181035f83015261243f81612406565b9050919050565b7f566f746572206e6f7420726567697374657265640000000000000000000000005f82015250565b5f61247a601483611a5a565b915061248582612446565b602082019050919050565b5f6020820190508181035f8301526124a78161246e565b9050919050565b7f456c656374696f6e2073746172742074696d652073686f756c64206265206c655f8201527f7373207468616e20656e642074696d6500000000000000000000000000000000602082015250565b5f612508603083611a5a565b9150612513826124ae565b604082019050919050565b5f6020820190508181035f830152612535816124fc565b905091905056fea2646970667358221220568d6de2879bcae4c8085a178318f1e29c3c1a3a7c3452e88868111de69e01cb64736f6c634300081e0033","linkReferences":{}},"methodIdentifiers":{"admin()":"f851a440","candidateList(uint256)":"b13c744b","candidateMapping(address)":"18aead02","changeStatus(address,bool,uint8)":"6ac658dd","electionEnd()":"ce7ea161","electionStart()":"c1211c86","getCandidates()":"06a49fce","isElectionActive()":"c8442239","registerCandidate(string,string,string,string,string)":"4bf80a27","registerVoter(string,string,string)":"07439509","setElectionStatus(bool)":"cae2a4a9","setElectionTime(uint256,uint256)":"f1335a8f","totalRegisteredCandidates()":"844d7cf8","totalRegisteredVoters()":"00aa7464","totalVotersWhoVoted()":"2b19f923","voteForCandidate(address)":"163046eb","voterMapping(address)":"0dc968b8"},"id":17}